:020000040000FA
:0600000044EF06F01200BF
:020006000000F8
:08000800060EE66E60EC06F046
:10001000E55200D01200F00EE66E52EC06F0E5520A
:1000200000D01200F60EE66E52EC06F0E55200D05B
:100030001200836A956A280EE66EDAEC03F0E55248
:10004000FEEC05F0000901E0FBD7060EE66E69EC58
:1000500005F0E552FEEC05F0000901E0FBD70C0EBF
:10006000E66E69EC05F0E552FEEC05F0000901E0F2
:10007000FBD71200D9CFE6FFE1CFD9FFE652D95026
:10008000FD0FE96EFF0EDA20EA6EEE50ED1003E18F
:10009000300EDF6E80D0D950FD0FE96EFF0EDA20F2
:1000A000EA6E010EEE1801E1ED5003E1310EDF6E54
:1000B00072D0D950FD0FE96EFF0EDA20EA6E020E03
:1000C000EE1801E1ED5003E1320EDF6E64D0D9503D
:1000D000FD0FE96EFF0EDA20EA6E030EEE1801E165
:1000E000ED5003E1330EDF6E56D0D950FD0FE96EAF
:1000F000FF0EDA20EA6E040EEE1801E1ED5003E186
:10010000340EDF6E48D0D950FD0FE96EFF0EDA20B5
:10011000EA6E050EEE1801E1ED5003E1350EDF6EDB
:100120003AD0D950FD0FE96EFF0EDA20EA6E060EC6
:10013000EE1801E1ED5003E1360EDF6E2CD0D95000
:10014000FD0FE96EFF0EDA20EA6E070EEE1801E1F0
:10015000ED5003E1370EDF6E1ED0D950FD0FE96E72
:10016000FF0EDA20EA6E080EEE1801E1ED5003E111
:10017000380EDF6E10D0D950FD0FE96EFF0EDA2079
:10018000EA6E090EEE1801E1ED5003E1390EDF6E63
:1001900002D0300EDF6EDF5000D0E552E552E7CFDF
:1001A000D9FF1200D9CFE6FFE1CFD9FFD950FD0F1B
:1001B000E96EFF0EDA20EA6E010EEE1801E1ED5055
:1001C00019E1E66AC6EC04F0E552FEEC05F0000920
:1001D00001E0FBD7FB0EDBCFE6FFFC0EDBCFE6FF3B
:1001E00091EC05F0E552E552FEEC05F0000901E066
:1001F000FBD785D0D950FD0FE96EFF0EDA20EA6EED
:10020000020EEE1801E1ED501AE1400EE66EC6EC6A
:1002100004F0E552FEEC05F0000901E0FBD7FB0E0F
:10022000DBCFE6FFFC0EDBCFE6FF91EC05F0E552FD
:10023000E552FEEC05F0000901E0FBD760D0D95093
:10024000FD0FE96EFF0EDA20EA6E030EEE1801E1F3
:10025000ED501AE1100EE66EC6EC04F0E552FEEC2D
:1002600005F0000901E0FBD7FB0EDBCFE6FFFC0E3B
:10027000DBCFE6FF91EC05F0E552E552FEEC05F030
:10028000000901E0FBD73BD0D950FD0FE96EFF0E0E
:10029000DA20EA6E040EEE1801E1ED501AE1500E7C
:1002A000E66EC6EC04F0E552FEEC05F0000901E054
:1002B000FBD7FB0EDBCFE6FFFC0EDBCFE6FF91ECBE
:1002C00005F0E552E552FEEC05F0000901E0FBD730
:1002D00016D0E66AC6EC04F0E552FEEC05F0000923
:1002E00001E0FBD7D60EE66E0C0EE66E18EC05F0BC
:1002F000E552E552FEEC05F0000901E0FBD7E552BE
:10030000E7CFD9FF1200D9CFE6FFE1CFD9FFD9500F
:10031000FD0FE96EFF0EDA20EA6E010EEE1801E124
:10032000ED5019E1E66AC6EC04F0E552FEEC05F08A
:10033000000901E0FBD7FB0EDBCFE6FFFC0EDBCFB5
:10034000E6FF18EC05F0E552E552FEEC05F0000979
:1003500001E0FBD785D0D950FD0FE96EFF0EDA2002
:10036000EA6E020EEE1801E1ED501AE1400EE66E63
:10037000C6EC04F0E552FEEC05F0000901E0FBD705
:10038000FB0EDBCFE6FFFC0EDBCFE6FF18EC05F043
:10039000E552E552FEEC05F0000901E0FBD760D024
:1003A000D950FD0FE96EFF0EDA20EA6E030EEE184B
:1003B00001E1ED501AE1100EE66EC6EC04F0E552D4
:1003C000FEEC05F0000901E0FBD7FB0EDBCFE6FFFA
:1003D000FC0EDBCFE6FF18EC05F0E552E552FEEC33
:1003E00005F0000901E0FBD73BD0D950FD0FE96EC5
:1003F000FF0EDA20EA6E040EEE1801E1ED501AE16C
:10040000500EE66EC6EC04F0E552FEEC05F0000975
:1004100001E0FBD7FB0EDBCFE6FFFC0EDBCFE6FFF8
:1004200018EC05F0E552E552FEEC05F0000901E09C
:10043000FBD716D0E66AC6EC04F0E552FEEC05F0F8
:10044000000901E0FBD7D60EE66E0C0EE66E18EC46
:1004500005F0E552E552FEEC05F0000901E0FBD79E
:10046000E552E7CFD9FF1200D9CFE6FFE1CFD9FFA0
:100470000E0EE126040EDB6A050EDB6A060EDB6A51
:10048000070EDB6A020EDB6A030EDB6ADE6ADD6AD8
:100490008D848D94400EE66E1DEC06F0E55284507E
:1004A000020B01E0010E166E176A020EDB501610E9
:1004B000146E030EDB501710156E020E14C0DBFF16
:1004C000030E15C0DBFF020EDBCF14F0030EDBCFF3
:1004D00015F0D89014361536020E14C0DBFF030E4B
:1004E00015C0DBFF8250200B01E0010E166E176A6B
:1004F000020EDB501610146E030EDB501710156E33
:10050000020E14C0DBFF030E15C0DBFF020EDBCFB3
:1005100014F0030EDBCF15F0D89014361536020E0A
:1005200014C0DBFF030E15C0DBFF8250100B01E08F
:10053000010E166E176A020EDB501610146E030EB3
:10054000DB501710156E020E14C0DBFF030E15C032
:10055000DBFF020EDBCF14F0030EDBCF15F0D890DB
:1005600014361536020E14C0DBFF030E15C0DBFF78
:100570008250100B01E0010E166E176A020EDB505E
:100580001610146E030EDB501710156E020E14C0F9
:10059000DBFF030E15C0DBFF0F0E086E096A020EAB
:1005A000DBCF0DF0030EDBCF0EF099EC04F006C0AC
:1005B000DEFF07C0DDFF0000DECF14F0DDCF15F059
:1005C00014C0F3FF15C0F4FF00D00E0EE15C02E290
:1005D000E16AE552E16EE552E7CFD9FF1200D9CFCB
:1005E000E6FFE1CFD9FF040EE126020EDB6A030E1F
:1005F000DB6A8B968B928B828B86DE6ADD6ADECF1E
:1006000014F0DDCF15F0D890155004E6080E145CF8
:10061000000E155827E2020EDBCF14F0030EDBCFDD
:1006200015F0D89014361536020E14C0DBFF030EF9
:1006300015C0DBFF8250010BE76E020EDBCF14F01A
:10064000030EDBCF15F0E7501412020E14C0DBFFCF
:10065000030E15C0DBFF8B928B82DF2A010E01E3B4
:10066000DB2ACDD7020EDBCF14F0030EDBCF15F063
:1006700014C0F3FF15C0F4FF00D0040EE15C02E2E9
:10068000E16AE552E16EE552E7CFD9FF1200D9CF1A
:10069000E6FFE1CFD9FF040EE126020EDB6A030E6E
:1006A000DB6A8B968B928B828B86DE6ADD6ADECF6D
:1006B00014F0DDCF15F0D890155004E6080E145C48
:1006C000000E155829E2020EDBCF14F0030EDBCF2B
:1006D00015F0D89014361536020E14C0DBFF030E49
:1006E00015C0DBFF8250400B01E0010EE76E020EE9
:1006F000DBCF14F0030EDBCF15F0E7501412020E1F
:1007000014C0DBFF030E15C0DBFF8B928B82DF2A48
:10071000010E01E3DB2ACBD7020EDBCF14F0030E70
:10072000DBCF15F014C0F3FF15C0F4FF00D0040EAA
:10073000E15C02E2E16AE552E16EE552E7CFD9FF02
:100740001200D9CFE6FFE1CFD9FF060EE126040E55
:10075000DB6A050EDB6A020EDB6A030EDB6ADE6A09
:10076000DD6A96829694948C948A94889496948464
:10077000949294805EDC33DFF3CFDEFFF4CFDDFFB5
:1007800086DF020EF3CFDBFF030EF4CFDBFF6CDE60
:10079000040EF3CFDBFF050EF4CFDBFF00000000FB
:1007A000060EE15C02E2E16AE552E16EE552E7CF56
:0407B000D9FF12005B
:0C07B400D9CFE6FFE1CFD9FF0F0E83166E
:1007C0000F0E95169590959295948C908C928C9492
:1007D0000BEC00F0300EE66E69EC05F0E552050E0C
:1007E000E66E1DEC06F0E552300EE66E69EC05F0A3
:1007F000E552010EE66E1DEC06F0E552320EE66E95
:1008000069EC05F0E552FEEC05F0000901E0FBD7CC
:10081000FEEC05F0000901E0FBD7FE0EDBCFE6FFA2
:1008200069EC05F0E552FEEC05F0000901E0FBD7AC
:10083000080EE66E69EC05F0E552FEEC05F00009E5
:1008400001E0FBD70F0EE66E69EC05F0E552FEEC19
:1008500005F0000901E0FBD7010EE66E69EC05F03A
:10086000E552FEEC05F0000901E0FBD7040EE66E50
:1008700069EC05F0E552FEEC05F0000901E0FBD75C
:10088000800EE66EC6EC04F0E55200D0E552E7CFEC
:04089000D9FF12007A
:0C089400060EF66E000EF76E000EF86EF9
:1008A00000010900F550856F0900F550866F03E1DE
:1008B000856701D03DD00900F550806F0900F550E3
:1008C000816F0900F550826F09000900F550E96E4B
:1008D0000900F550EA6E090009000900F550836F20
:1008E0000900F550846F09000900F6CF87F0F7CFB3
:1008F00088F0F8CF89F080C0F6FF81C0F7FF82C092
:10090000F8FF0001835302E1845307E00900F5502A
:10091000EE6E8307F8E28407F9D787C0F6FF88C038
:10092000F7FF89C0F8FF00018507000E865BBFD77F
:020930001200B3
:0E09320009C013F008C012F008500D02F4CFF7
:1009400007F0F3CF06F009500E02F4CF09F0F3CF11
:1009500008F00D02F3500726F4500822E86A092235
:1009600012500E02F3500726F4500822E86A0922BA
:100970000EAEBFEF04F01250085E1350095A13AECA
:0C098000000C0D50085E0E50095A000CCF
:04098C00D9CFE6FFDA
:10099000E1CFD9FF0F0E95160F0E8316FE0EDB501A
:1009A0008009F00B83128C908C9204EC00F08C8404
:1009B00004EC00F08C940F0E8316FE0EDB38F00B67
:1009C000F00B831204EC00F08C8404EC00F08C94A7
:0E09D000F00E951200D0E552E7CFD9FF1200CD
:0209DE00D9CF6F
:1009E000E6FFE1CFD9FF0F0E95160F0E8316FE0E10
:1009F000DB504009F00B83128C908C9204EC00F0D9
:100A00008C8404EC00F08C940F0E8316FE0EDB3801
:100A1000F00BF00B831204EC00F08C8404EC00F07B
:100A20008C94F00E951200D0E552E7CFD9FF12005A
:100A3000D9CFE6FFE1CFD9FFFD0EDBCFF6FFFE0EEB
:100A4000DBCFF7FF0800F55017E0FEEC05F00009DA
:100A500001E0FBD7FD0EDBCFF6FFFE0EDBCFF7FF8D
:100A60000800F550E66E41EC05F0E552FD0EDB2A7C
:100A7000FE0E01E3DB2AE0D700D0E552E7CFD9FF35
:020A8000120062
:0E0A8200D9CFE6FFE1CFD9FF0F0E95160F0E6C
:100A90008316FE0EDB50F00B83128C828C9004ECDC
:100AA00000F08C8404EC00F08C940F0E8316FE0E84
:100AB000DB38F00BF00B831204EC00F08C8404ECB8
:100AC00000F08C94F00E951200D0E552E7CFD9FFDC
:020AD000120012
:0E0AD200D9CFE6FFE1CFD9FF0F0E95160F0E1C
:100AE0008316FE0EDB50F00B83128C908C9204EC7C
:100AF00000F08C8404EC00F08C940F0E8316FE0E34
:100B0000DB38F00BF00B831204EC00F08C8404EC67
:100B100000F08C94F00E951200D0E552E7CFD9FF8B
:020B20001200C1
:0E0B2200D9CFE6FFE1CFD9FFFD0EDBCFE9FF13
:100B3000FE0EDBCFEAFFEF5016E0FEEC05F00009F9
:100B400001E0FBD7FD0EDBCFE9FFFE0EDBCFEAFFB6
:100B5000EF50E66E41EC05F0E552FD0EDB2AFE0E8D
:100B600001E3DB2AE2D700D0E552E7CFD9FF12003C
:100B7000D9CFE6FFE1CFD9FFE6528C808C8204EC1E
:100B800000F08C8404EC00F0F00E8314DF6E8C9483
:100B900004EC00F08C8404EC00F083380F0B0F0B96
:100BA000DF128C948C928C90DF5000D0E552E5528D
:060BB000E7CFD9FF12009F
:0A0BB600D9CFE6FFE1CFD9FFE652E8
:100BC0008C808C9204EC00F08C8404EC00F0F00E2D
:100BD0008314DF6E8C9404EC00F08C8404EC00F041
:100BE00083380F0B0F0BDF128C948C907F0EDF1469
:0C0BF00000D0E552E552E7CFD9FF12001B
:040BFC008C808C92CB
:100C000004EC00F08C8404EC00F083AE0BD08C94E8
:100C100004EC00F08C8404EC00F08C948C90010EB9
:100C20000BD00AD08C9404EC00F08C8404EC00F01F
:0A0C30008C948C90000E00D012008E
:060C3A00FF0EE350196EED
:100C4000EF0E01D0F30EE76EE72E24EF06F00C0E48
:100C5000186EE76AE72E2AEF06F0182E29EF06F045
:080C6000192E22EF06F012002C
:080C6800000EF36E00EE00F037
:100C7000060E01D81200EA6002D0EE6AFCD7F350EB
:080C8000E9601200EE6AFCD7E6
:080C880015EE00F025EE00F06E
:100C9000F86A019C4AEC04F072EC06F0A1EC03F057
:040CA000FBD712006C
:0C0CA400FF0EE350196E1B0E00D001D0B3
:100CB000200EE76EE72EFED7192EFAD700D01200CD
:100CC000FF0EE350E84E1200000000D000D000D02C
:060CD000E82EFAD7120025
:0A0CD6004552524F523A206C696EED
:040CE0006520230068
:020CE4001200FC
:020000040030CA
:0100010022DC
:010003000EEE
:010006008178
:00000001FF
