:020000040000FA
:0600000044EF02F01200C3
:020006000000F8
:08000800D9CFE6FFE1CFD9FFDB
:10001000020EE1268B988B9A8D94080EDE6EDD6AB7
:10002000DECF10F0DDCF11F00001800E111407E1DA
:100030008B988B88DF06010E01E2DB06F1D7020EFA
:10004000E15C02E2E16AE552E16EE552E7CFD9FFF9
:100050001200D9CFE6FFE1CFD9FF040EE126020E50
:10006000DB6A800EF36E030EF3CFDBFF0F0EDE6E46
:10007000DD6ADECF10F0DDCF11F00001800E11142B
:100080003AE1FD0EDBCF14F0FE0EDBCF15F0020ED1
:10009000DB501414126E030EDB501514136EDF5078
:1000A00012C010F013C011F005E0D89011321032D8
:1000B000E804FBE11050E8B08B8CE8A08B9C020EAA
:1000C000106E116A020EDBCF08F0030EDBCF09F0D1
:1000D00010C00DF011C00EF0F8EC01F0020E08C0D7
:1000E000DBFF030E09C0DBFF8B9E8B8EDF06010E4C
:1000F00001E2DB06BED7040EE15C02E2E16AE552F2
:10010000E16EE552E7CFD9FF1200D9CFE6FFE1CF8C
:10011000D9FF040EE1268D84800EF36E020EF3CF1C
:10012000DBFF030EDB6A070EDE6EDD6ADECF10F04A
:10013000DDCF11F00001800E11143AE1FD0EDBCF8E
:1001400014F0FE0EDBCF15F0020EDB501414126E0D
:10015000030EDB501514136EDF5012C010F013C0E5
:1001600011F005E0D89011321032E804FBE1105094
:10017000E8B08B8AE8A08B9A020E106E116A020E0C
:10018000DBCF08F0030EDBCF09F010C00DF011C07B
:100190000EF0F8EC01F0020E08C0DBFF030E09C000
:1001A000DBFF8B988B88DF06010E01E2DB06BED7F2
:1001B000040EE15C02E2E16AE552E16EE552E7CF4E
:1001C000D9FF1200D9CFE6FFE1CFD9FF040EE12617
:1001D000020EDB6A030EDB6A8B968B928B828B8618
:1001E0008D94DE6ADD6ADECF10F0DDCF11F0D8909D
:1001F000115004E6080E105C000E115827E2020EA2
:10020000DBCF10F0030EDBCF11F0D8901036113693
:10021000020E10C0DBFF030E11C0DBFF8250010B8A
:10022000E76E020EDBCF10F0030EDBCF11F0E750CC
:100230001012020E10C0DBFF030E11C0DBFF8B9209
:100240008B82DF2A010E01E3DB2ACDD7020EDBCF42
:1002500010F0030EDBCF11F010C0F3FF11C0F4FF5C
:1002600000D0040EE15C02E2E16AE552E16EE55283
:10027000E7CFD9FF1200D9CFE6FFE1CFD9FF020EB9
:10028000E126DE6ADD6A8B9E8B9C8B9A8B988C862E
:10029000898C8D94949C949E949A9498949694921C
:1002A00094809596929C96948C86898C550EE66ED9
:1002B000550EE66ECEDEE552E552AA0EE66EE66A11
:1002C00024DFE552E552899C898CAA0EE66E2A0E3F
:1002D000E66EBFDEE552E552550EE66EE66A15DFC4
:1002E000E552E552899C898C550EE66E550EE66EF8
:1002F000B0DEE552E552A00EE66EE66A06DFE55294
:10030000E552899C898C0000030EE66EE66AA1DE48
:10031000E552E552AA0EE66EE66AF7DEE552E552D0
:10032000899C898C010EE66E52EC02F0E5528C96A7
:1003300049DFF3CFDEFFF4CFDDFF00000000020E47
:10034000E15C02E2E16AE552E16EE552E7CFD9FFF6
:02035000120099
:0E035200060EF66E000EF76E000EF86E00013D
:100360000900F550856F0900F550866F03E1856738
:1003700001D03DD00900F550806F0900F550816F24
:100380000900F550826F09000900F550E96E090077
:10039000F550EA6E090009000900F550836F090065
:1003A000F550846F09000900F6CF87F0F7CF88F089
:1003B000F8CF89F080C0F6FF81C0F7FF82C0F8FF58
:1003C0000001835302E1845307E00900F550EE6E0B
:1003D0008307F8E28407F9D787C0F6FF88C0F7FFE4
:1003E00089C0F8FF00018507000E865BBFD71200A9
:1003F000006A0EAE01EF02F00D6C0E1EE86A0E22CE
:10040000001E09AE09EF02F0086C091EE86A092215
:10041000001E1EEC02F009BE19EF02F000AE000C47
:10042000086C091EE86A0922046C051EE86A0522A8
:0C043000000C00BE10EF02F00188FF0C71
:04043C00056A046ADF
:10044000100EE76ED89008360936043605360D5082
:10045000045C0E50055805E30D50045E0E50055A1D
:08046000082AE72EF0D7120074
:08046800000EF36E00EE00F03F
:10047000060E01D81200EA6002D0EE6AFCD7F350F3
:08048000E9601200EE6AFCD7EE
:0804880015EE00F025EE00F076
:10049000F86A019CA9EC01F05DEC02F03BEC01F084
:0404A000FBD7120074
:0C04A400FF0EE350E84E1200000000D0F4
:0A04B00000D000D0E82EFAD71200A9
:0204BA0012002E
:020000040030CA
:0100010022DC
:010003000EEE
:010006008178
:00000001FF
